:1000000092C10000C1C10000BFC10000BDC100001D
:10001000BBC10000B9C10000B7C10000B5C10000FC
:10002000B3C1000037C7000035C7000033C7000068
:10003000ABC10000A9C10000A7C10000A5C100001C
:10004000A3C10000A1C100009FC100009DC100002C
:100050009BC1000099C1000097C1000090C300003F
:1000600093C10000B2C4000087C400008DC100002D
:100070008BC1000089C1000087C1000085C100005C
:1000800083C1000081C100007FC100007DC100006C
:100090007BC1000079C1000077C1000075C100007C
:1000A00073C1000071C100006FC100006DC100008C
:1000B0006BC1000069C1000067C1000065C100009C
:1000C00063C1000061C100005FC100005DC10000AC
:1000D0005BC1000059C1000057C1000055C10000BC
:1000E00053C1000092079507840788078E07CC0745
:1000F00099079D07A307A707AB07B107B507B9077E
:10010000CC07BF07C307C70700407A10F35A00A007
:10011000724E18090010A5D4E80000E876481700D0
:1001200000E40B54020000CA9A3B000000E1F50510
:10013000000080969800000040420F000000A0865A
:1001400001000000102700000000E803000000008C
:100150006400000000000A00000000000100000030
:1001600000002C76D888DC674F0823DFC1DFAE594A
:10017000E1B1B796E5E3E453C63AE651997696E8DD
:10018000E6C28426EB898C9B62ED407C6FFCEFBC61
:100190009C9F40F2BAA56FA5F490055A2AF75C938C
:1001A0006B6CF9676DC11BFCE0E40D47FEF520E6C2
:1001B000B500D0ED902E0300943577050080841EA5
:1001C000080000204E0A000000C80C333333330F00
:1001D000986E12831141EF8D2114893BE65516CF9D
:1001E000FEE6DB18D1844B381BF77C1D901DA4BBA9
:1001F000E424203284725E228100C9F124ECA1E55E
:100200003D2700002100240027002A002D00300097
:10021000330001010000040107010A01000022006F
:10022000250028002B002E003100340002010000C0
:10023000050108010B0100000A0B02090C0D0E0854
:10024000070304010000000000000000000000009F
:10025000000000000000000000000000000000009E
:10026000000012111000000000000000000000005B
:10027000000000000000000000000000000020005E
:100280002300260029002C002F003200000100006E
:100290000301060109010505050507050808080809
:1002A000020202020A0A080804040404010101010E
:1002B0000101010103030303030303030407070709
:1002C0000C0C0C0C0C0C0C0C0202020206060606AE
:1002D000060606060B0B0B0B0B0B0B0B010210207B
:1002E000200808102040102040800201020108046C
:1002F0000201010204081020408080402010080400
:100300000201800402018040201008040201080458
:10031000020101020408102040800102040810209C
:100320004080770E730E11241FBECFEFD1E2DEBFE7
:10033000CDBF00E00CBF25E0A2E2B4E001C01D92F9
:10034000A136B207E1F714E0A0E0B2E0EAE9FBE28F
:1003500000E00BBF02C007900D92A232B107D9F79F
:1003600011E0C2E9D1E000E006C021970109802F29
:10037000FE010E948B13C139D10780E00807A9F75D
:100380000E947E0A0C94BC153BCECF92DF92EF9276
:10039000FF920F931F93CF93DF936C017A018B0130
:1003A000C0E0D0E0CE15DF0581F0D8016D918D0160
:1003B000D601ED91FC910190F081E02DC6011995D7
:1003C000892B11F02196EECF7E01C701DF91CF91ED
:1003D0001F910F91FF90EF90DF90CF900895FC0157
:1003E000538D448D252F30E0842F90E0821B930B9A
:1003F000541710F0CF96089501970895FC01918D40
:10040000828D981761F0828DDF01A80FB11D5D9676
:100410008C91928D9F5F9F73928F90E008958FEFE4
:100420009FEF0895FC01918D828D981731F0828D98
:10043000E80FF11D858D90E008958FEF9FEF0895EF
:10044000FC01918D228D892F90E0805C9F4F821B53
:1004500091098F739927089583E394E0F1DF21E0F8
:10046000892B09F420E0822F0895FC01848DDF019F
:10047000A80FB11DA35ABF4F2C91848D90E0019617
:100480008F739927848FA689B7892C93A089B18906
:100490008C91837080648C93938D848D981306C0A7
:1004A0000288F389E02D80818F7D80830895EF920B
:1004B000FF920F931F93CF93DF93EC0181E0888F1E
:1004C0009B8D8C8D981305C0E889F989808185FD05
:1004D00025C0F62E0B8D10E00F5F1F4F0F731127F5
:1004E000E02E8C8DE8120BC00FB607FCFACFE8891E
:1004F000F989808185FFF5CFCE01B7DFF2CF8B8DF3
:10050000FE01E80FF11DE35AFF4FF0829FB7F89408
:100510000B8FEA89FB89808180620AC09FB7F894BB
:10052000EE89FF896083E889F9898081837080641E
:1005300080839FBF81E090E0DF91CF911F910F9169
:10054000FF90EF900895CF93DF93EC01888D88237F
:10055000C1F0EA89FB89808185FD05C0A889B98938
:100560008C9186FD0EC00FB607FCF5CF808185FF0C
:10057000F2CFA889B9898C9185FFEDCFCE0175DFC7
:10058000E8CFDF91CF91089580E090E0892B19F0BA
:1005900063DF811125C080E090E0892B41F080E08D
:1005A00090E0892B21F00E94000081111CC080E0A6
:1005B00090E0892B41F080E090E0892B21F00E94AF
:1005C0000000811113C080E090E0892BA1F080E051
:1005D00090E0892B81F00E94000081110AC00895EB
:1005E0000E940000D8CF0E940000E1CF0E940000CE
:1005F000EACF0C9400000895089580E090E00895FB
:10060000862F642FCFC5CF93DF93EC0160E08E81FE
:10061000C9D561E08E81C6D560E08E81C3D58BE8F7
:1006200091E00197F1F7DF91CF91089561E088E1C2
:10063000B9C5862F8FC5862F642FE2C50E94A815E5
:100640000F931F93CF93DF93EC01888199810097DB
:1006500029F02A813B812617370788F48B016F5FC9
:100660007F4F0E94C814009761F0998388831B8391
:100670000A832C813D81232B11F4FC01108281E03F
:1006800001C080E0DF91CF911F910F910895CF932A
:10069000DF93EC0188819981009711F00E943F144B
:1006A000198218821D821C821B821A82DF91CF91CF
:1006B0000895FC01808191810C943F14EF92FF9288
:1006C0000F931F93CF93DF93FC011182108213824B
:1006D0001282158214828617970729F1DB010D918A
:1006E0001C91119701151105F1F0EC011496ED9094
:1006F000FC901597B701A4DF811108C0CE01DF91EE
:10070000CF911F910F91FF90EF90C1CFFD82EC82AE
:10071000B80188819981DF91CF911F910F91FF904E
:10072000EF900C94B515DF91CF911F910F91FF9031
:10073000EF9008953FB7F89480912B0490912C048A
:10074000A0912D04B0912E0426B5A89B05C02F3F83
:1007500019F00196A11DB11D3FBFBA2FA92F982FE7
:100760008827820F911DA11DB11DBC01CD0142E062
:10077000660F771F881F991F4A95D1F708951F921A
:100780000F920FB60F9211242F933F938F939F9345
:10079000AF93BF9380912F0490913004A0913104C6
:1007A000B091320430912A0423E0230F2D3720F436
:1007B0000196A11DB11D05C026E8230F0296A11DBB
:1007C000B11D20932A0480932F0490933004A093AA
:1007D0003104B093320480912B0490912C04A091A9
:1007E0002D04B0912E040196A11DB11D80932B0400
:1007F00090932C04A0932D04B0932E04BF91AF913D
:100800009F918F913F912F910F900FBE0F901F904E
:100810001895EF92FF920F931F93CF93DF93EC0104
:10082000198218821B821A821D821C826115710531
:1008300011F18B01FB0101900020E9F731977F0155
:10084000E61AF70AB701FCDE811108C0CE01DF917C
:10085000CF911F910F91FF90EF9019CFFD82EC8205
:10086000B80188819981DF91CF911F910F91FF90FD
:10087000EF900C94B515DF91CF911F910F91FF90E0
:10088000EF9008950F931F93CF93DF93CDB7DEB70B
:1008900062970FB6F894DEBF0FBECDBF8C01C6DEE7
:1008A00061E472E0CE010D96B4DFBE01635F7F4F5D
:1008B000CE01019603DFCE010196A1D3CE010196B0
:1008C000F8DEB801CE010196F9DE67E575E0CE01EC
:1008D0000796F4DEBE016F5F7F4FCE01079694D579
:1008E000CE010796E6DECE010196E3DECE010D963F
:1008F000E0DE62960FB6F894DEBF0FBECDBFDF918B
:10090000CF911F910F9108956115710579F0FB0149
:1009100001900020E9F73197AF01461B570BDC012E
:10092000ED91FC910280F381E02D199480E090E03C
:1009300008950F931F93CF93DF93EC01E5DF8C01B4
:1009400062E572E0CE01E0DF800F911FDF91CF9171
:100950001F910F91089560E080E040D365E572E05B
:100960008FE395E0E6DF61E080E038D366E672E091
:100970008FE395E0DECFC8CF1F920F920FB60F9294
:1009800011240BB60F922F933F934F935F936F9366
:100990007F938F939F93AF93BF93EF93FF9383E3E3
:1009A00094E063DDFF91EF91BF91AF919F918F91A3
:1009B0007F916F915F914F913F912F910F900BBE5F
:1009C0000F900FBE0F901F9018951F920F920FB6A9
:1009D0000F9211240BB60F922F938F939F93EF9347
:1009E000FF93E0914304F09144048081E091490435
:1009F000F0914A0482FD12C0908180914C048F5F77
:100A00008F7320914D04821751F0E0914C04F0E077
:100A1000ED5CFB4F958F80934C0401C08081FF916A
:100A2000EF919F918F912F910F900BBE0F900FBE62
:100A30000F901F901895CF92DF92EF92FF920F9335
:100A40001F93CF93DF936C017C0187E0E80EF11CCC
:100A5000C0E0D0E0062F10E0B8010C2E02C0759562
:100A600067950A94E2F76170F70181917F019AD34B
:100A70002196C430D10581F7C601DF91CF911F9136
:100A80000F91FF90EF90DF90CF90BDCDCF92DF928E
:100A9000EF92FF920F931F93CF93DF93EC01F62E0B
:100AA000642F8C817FD38D818F3F11F060E07AD3EA
:100AB0008F850F2D10E084FF23C06E0187E0C80EE4
:100AC000D11CE12CF12CB8010E2C02C07595679554
:100AD0000A94E2F76170F60181916F0163D3FFEF31
:100AE000EF1AFF0A88E0E816F10469F7CE01DF91FA
:100AF000CF911F910F91FF90EF90DF90CF9083CD1A
:100B0000B80184E0759567958A95E1F7CE0193DF8A
:100B10006F2DCE01DF91CF911F910F91FF90EF903C
:100B2000DF90CF9088CF41E0B1DF81E090E0089581
:100B30002F923F924F925F926F927F928F929F92ED
:100B4000AF92BF92CF92DF92EF92FF920F931F93DB
:100B5000CF93DF93CDB7DEB7EA970FB6F894DEBF39
:100B60000FBECDBF63DD65E772E0CE01889651DE32
:100B7000C0902404D0902504E0902604F09027042F
:100B8000BE01685D7F4FCE01829698DD8E010F5FBA
:100B90001F4F22E044E0C701B6010E94370F7C01DD
:100BA000FC0101900020E9F73197E81BF90B892B34
:100BB000C1F03097C9F00EA11FA10E0F1F1FB80181
:100BC000CE0182963DDD882361F02AA13BA18EA152
:100BD0009FA1B701820F931F0E94B5151FA30EA3FB
:100BE00003C0CE01829653DD0EA11FA10D5F1F4FE2
:100BF000B801CE01829624DD882309F447C12AA1D9
:100C00003BA18EA19FA16BE872E0820F931F0E940F
:100C1000B5151FA30EA3BE016E5D7F4FCE018E964C
:100C20004DDDCE01829645DD6FE872E0CE01C496BF
:100C3000F0DDBE016C5C7F4FCE0101963FDDCE0141
:100C40000196DDD1CE01019634DDBE01625D7F4F9C
:100C5000CE01019633DD67E575E0CE0182962EDD8B
:100C6000BE016F5F7F4FCE018296CED3CE018296BA
:100C700020DDCE0101961DDD60EA72E083E394E0A1
:100C800058DE61E080E0AAD1C0902404D090250411
:100C9000E0902604F0902704A7019601C701B60151
:100CA0000E945213882319F064EB72E01AC04601C7
:100CB0005701E894B7F82FEF3FEF4FE75FE7C50123
:100CC000B4010E945213811110C02FEF3FEF4FE784
:100CD0005FE7C501B4010E94A411181634F468EB53
:100CE00072E08FE395E010DEA7C02FEF3FEF4FE7F4
:100CF0005FE4C701B6010E944E1318161CF46CEB9A
:100D000072E0EFCF2FEF3FEF4FE75FECC701B60187
:100D10000E94A41187FDF3CF20E030E0A901C701B4
:100D2000B6010E94A41187FF09C041E06DE28FE384
:100D300095E0ACDEF7FAF094F7F8F0942AE037ED9E
:100D400043EA5BE3C701B6010E94BE124B015C019E
:100D50000E9422136B017C010E94A8119B01AC012F
:100D6000C501B4010E94BD124B015C0119A28E01A4
:100D70000F5D1F4F0AAF612E2AE0222E312C412C2D
:100D8000512CC701B601A20191010E9469136901AA
:100D90007A01605DF80162938F01232B242B252BB0
:100DA00081F7BF018FE395E0AFDD41E06EE28FE3B5
:100DB00095E06CDE83E0F82E9AE0292E312C412C50
:100DC000512CFA94FF20C1F120E030E040E251E4E0
:100DD000C501B4010E9409124B015C010E9422135B
:100DE0009B0140E050E019A20AAD162D762EC32ECD
:100DF000D42EE52ECA01B901A20191010E94691306
:100E0000605DF80162938F0121153105410551059F
:100E100089F7BF018FE395E077DD672D7C2D8D2D60
:100E20009E2D0E94A8119B01AC01C501B4010E9436
:100E3000BD124B015C01C5CF61E08AE0CFD06CE808
:100E400072E08FE395E097DDCE01C49632DCCE01EF
:100E50008E962FDCCE0188962CDCEA960FB6F8949D
:100E6000DEBF0FBECDBFDF91CF911F910F91FF90DD
:100E7000EF90DF90CF90BF90AF909F908F907F903A
:100E80006F905F904F903F902F900895CE01829683
:100E9000FEDBC1CE1F920F920FB60F9211240F905E
:100EA0000FBE0F901F90189596E0899FD0011124D6
:100EB000A053BB4F90967C936E935F9791E0919671
:100EC0009C93919790913C05E0913D05F0913E05F2
:100ED000992339F0309751F0811108C08091EC04CA
:100EE00004C0309719F05C968C911994089590E0A5
:100EF000FC013197E231F10508F04EC08827EE5829
:100F0000FF4F8F4F0C948B13809180008F7703C01D
:100F1000809180008F7D8093800008958091800073
:100F2000877FF9CF84B58F7702C084B58F7D84BD6C
:100F300008958091B0008F7703C08091B0008F7DBD
:100F40008093B0000895809190008F7707C08091C2
:100F500090008F7D03C080919000877F80939000E8
:100F600008958091A0008F7707C08091A0008F7DA9
:100F700003C08091A000877F8093A0000895809196
:100F800020018F7707C0809120018F7D03C0809161
:100F90002001877F80932001089540E0682F8FE330
:100FA00095E074CDCF93DF93FC014481558160813E
:100FB000718183E394E0E9D9EC0162E572E083E3B7
:100FC00094E0A2DC8C0F9D1FDF91CF91089581E00A
:100FD000E4DF8BE39FE10197F1F70895643008F0B7
:100FE00063E090915205691710F06FEF690FE62FDB
:100FF000F0E0E15CFA4F9489890F8068CECFCF93FF
:10100000DF93EC01E4DF60E080E0E8DF4C815D81AC
:10101000688179818FE395E0DF91CF91B6C9CF9256
:10102000DF92EF92FF920F931F9396E0899FF0015A
:101030001124E053FB4F11A2278D30A1213031053F
:1010400031F158F02230310509F446C02330310522
:1010500009F04DC060E070E043C0662309F447C06A
:1010600061E070E021DF2FB7F89480912F04909118
:101070003004A0913104B09132042FBF8093280531
:1010800090932905A0932A05B0932B0530C09FB7F4
:10109000F894C0902F04D0903004E0903104F09088
:1010A00032049FBF009128051091290520912A053F
:1010B00030912B05C01AD10AE20AF30A00913A05D1
:1010C00010913B0520E030E00C151D052E053F0575
:1010D00018F462E070E004C0611109C063E070E0E0
:1010E0001F910F91FF90EF90DF90CF90DDCE1F9179
:1010F0000F91FF90EF90DF90CF9008950F931F9383
:1011000090E0FC01E452FD4F6491FC01EA56FD4F72
:10111000E491F0E0EE0FFF1FE458FD4F85919491AC
:1011200000E412E42FE030E0462FA3D161157105F1
:101130008105910549F0DC01CB010196A11DB11D8E
:10114000BC01CD019F7003C060E070E0CB011F9136
:101150000F910895CF93DF93282F30E0F901EA5CD7
:10116000FD4F8491F901E452FD4FD491F901EA5603
:10117000FD4FC491CC2389F08111B9DEEC2FF0E052
:10118000EE0FFF1FE458FD4FA591B491EC91ED23B4
:1011900081E090E021F480E002C080E090E0DF9107
:1011A000CF9108951F93CF93DF93282F30E0F9015B
:1011B000EA5CFD4F8491F901E452FD4FD491F901AD
:1011C000EA56FD4FC491CC23B9F0162F81118FDE62
:1011D000EC2FF0E0EE0FFF1FE45EFD4FA591B49100
:1011E0009FB7F894111104C08C91D095D82302C0F8
:1011F000EC91DE2BDC939FBFDF91CF911F9108957F
:10120000CF93DF9390E0FC01E452FD4F2491FC0169
:10121000EA56FD4F8491882361F190E0880F991F71
:10122000FC01EE5FFD4FC591D491FC01E45EFD4FE2
:10123000A591B491611109C09FB7F8948881209558
:1012400082238883EC912E230BC0623061F49FB718
:10125000F8948881322F309583238883EC912E2B4C
:101260002C939FBF06C08FB7F894E8812E2B28835C
:101270008FBFDF91CF910895CF93DF93623028F035
:1012800090914E05986090934E0560935205109290
:10129000530590E4909354058093550590E0805C4D
:1012A0009F4F8093560561E080914305A9DF8091AF
:1012B00044058F3F11F061E0A3DF61E080914505B7
:1012C0009FDFCFE3D5E09E012F53354080914E053F
:1012D00084FD03C084E090E002C088E090E02196A5
:1012E0002817390724F461E08E818ADFECCF8BE385
:1012F0009DE00197F1F760E08091430553DF60E0E6
:10130000809145054FDF809144058F3F11F060E0EB
:1013100049DF80914E0584FD1CC063E08FE395E0BA
:101320008ADBCBE4D6E4CE010197F1F763E08FE3EB
:1013300095E081DB2197F1F763E08FE395E07BDBBC
:1013400083E592E00197F1F762E08FE395E073DBCC
:1013500012C0806222DE8BE496E40197F1F780915F
:101360004E0580621ADE83E592E00197F1F78091E5
:101370004E05806212DE80914E0580620EDE84E0B2
:1013800080934F058CE009DE22DE82E080935005D9
:1013900086E0DF91CF9101CE8F929F92AF92BF9264
:1013A000CF92DF92EF92FF926B017C01C3D94B0188
:1013B0005C01C114D104E104F104E9F0BBD9DC0102
:1013C000CB0188199909AA09BB09883E9340A10558
:1013D000B10578F321E0C21AD108E108F10888EEDE
:1013E000880E83E0981EA11CB11CC114D104E10435
:1013F000F10421F7DECFFF90EF90DF90CF90BF9008
:10140000AF909F908F9008950F931F93CF93DF938A
:101410008C01EB0169EF73E083E394E08ADA6DE01D
:1014200074E083E394E085DA64E670E080E090E0C5
:10143000B3DF67E174E083E394E09DDAC801B2DDD5
:1014400064EF71E080E090E0A7DFCE01ABDD64EFF8
:1014500071E080E090E0A0DF6AE183E394E027D8C8
:1014600068E873E180E090E0DF91CF911F910F91E8
:1014700093CFCF92DF92EF92FF920F931F93E82FBB
:10148000F92F05C0015011092109310961F190813D
:1014900096239417B9F305C00150110921093109A8
:1014A00011F1908196239413F7CFC12CD12CE12C0C
:1014B000F12C0AC08FEFC81AD80AE80AF80A0C15EE
:1014C0001D052E053F0579F080818623841791F351
:1014D0006C2D7D2D8E2D9F2D1F910F91FF90EF90E4
:1014E000DF90CF90089560E070E080E090E01F9181
:1014F0000F91FF90EF90DF90CF900895CF93DF93FF
:10150000CDB7DEB764970FB6F894DEBF0FBECDBF80
:10151000789484B5826084BD84B5816084BD85B5CE
:10152000826085BD85B5816085BD80916E008160DA
:1015300080936E0010928100809181008260809380
:101540008100809181008160809381008091800082
:101550008160809380008091B10084608093B100AD
:101560008091B00081608093B00080919100826092
:10157000809391008091910081608093910080918F
:1015800090008160809390008091A10082608093A0
:10159000A1008091A10081608093A1008091A000B2
:1015A00081608093A000809121018260809321015D
:1015B00080912101816080932101809120018160CF
:1015C0008093200180917A00846080937A008091DA
:1015D0007A00826080937A0080917A0081608093A3
:1015E0007A0080917A00806880937A001092C1001E
:1015F00061E086E105DE60E081E102DE61E087E135
:10160000FFDD60E082E1FCDD62E083E1F9DD60E0C6
:1016100084E1F6DD60E085E1F3DD60E080E1F0DDAE
:1016200060E08FE0EDDD61E088E1EADDE091430418
:10163000F091440482E08083E0913F04F091400403
:101640001082E0914104F09142048FEC808310926B
:101650004B04E0914704F091480486E08083E091D8
:101660004504F0914604808180618083E0914504C7
:10167000F0914604808188608083E0914504F09178
:101680004604808180688083E0914504F09146049F
:1016900080818F7D808360EA72E083E394E049D9A2
:1016A00064E084E1E9DD60E080E098DC60EC72E019
:1016B0008FE395E060D95FE0852E912C6AE3662E7A
:1016C000712C212C312C2101239462E080E086DCF6
:1016D0006BEC72E08FE395E04ED96FED72E0CE01D6
:1016E000019697D885E136DD019719F4CE01019670
:1016F000C9D8CE0101960E94590360E087E152DD0E
:10170000C4010197F1F761E087E14CDD83E290E0ED
:101710000197F1F760E087E145DD82E1EFDCCB0185
:10172000B301C4D7072E000C880B990B13D6609316
:10173000240470932504809326049093270420E0CA
:1017400030E046E153E400D618160CF0F1D98FE0F2
:1017500001DD0197A9F561E08FE024DD0E94160309
:101760006EEF72E0CE010D9654D8BE01635F7F4FDD
:10177000CE0101960E945E03CE01019640DCCE01AF
:1017800001960E9459036DE073E0CE01079641D89F
:1017900067E575E0CE0101960E945E03BE01695FB8
:1017A0007F4FCE01019630DECE0101960E94590393
:1017B000CE0107960E945903CE010D960E9459034F
:1017C00080E1C8DC0197A9F561E080E1EBDC0E94D3
:1017D000160364E273E0CE010D961BD8BE01635F71
:1017E0007F4FCE0101960E945E03CE01019607DC79
:1017F000CE0101960E94590360E373E0CE01079683
:1018000008D867E575E0CE0101960E945E03BE012F
:10181000695F7F4FCE010196F7DDCE0101960E94F0
:101820005903CE0107960E945903CE010D960E94DE
:10183000590364E473E0CE0101960E94090484E137
:1018400089DC019719F4CE0101961CD8CE010196CE
:101850000E94590360E086E1A5DCC4010197F1F71D
:1018600061E086E19FDC83E290E00197F1F760E0C0
:1018700086E198DC81E142DCCB01B30117D7072E6A
:10188000000C880B990B66D5609324047093250493
:10189000809326049093270420E030E046E153E44F
:1018A00053D518160CF044D983E154DC019709F0A4
:1018B000EEC161E673E083E394E03BD861E088E148
:1018C00071DC8091280490912904892B09F443D874
:1018D00081E080933C058FB7F89440912F0450919C
:1018E000300460913104709132048FBF80912C05D7
:1018F00090912D05A0912E05B0912F05481B590BF5
:101900006A0B7B0B8091380590913905A0E0B0E01F
:1019100084179507A607B70708F005C110E0809166
:101920003605181710F0D12C40C0E0913205F09127
:101930003305E10FF11D62E0808162DC1F5FEFCFB4
:101940000C2D10E0E0913205F0913305E00FF11F0E
:10195000808100DC0C5F1F4F000F111FF801E05366
:10196000FB4F892B09F04AC0808191812B893C89EA
:10197000822B932B91838083C39480913605C81664
:10198000F8F2E0913405F0913505EE0DFF1D61E0B0
:10199000808108DC8091340590913505FC01EE0DC5
:1019A000FF1D60E080812CDCD39480913705D81630
:1019B00050F5ED2CF12CE0913405F0913505EE0D4C
:1019C000FF1D61E080811CDCE0913405F09135055C
:1019D000EE0DFF1D60E08081E5DBD201C1010D2C21
:1019E00004C0880F991FAA1FBB1F0A94D2F79C8BB3
:1019F0008B8B5C01A094B094C12CBFCF808191816E
:101A00008A219B21B7CF00ED14E03CE0C32E35E0E6
:101A1000D32EF801878D90A1892B31F4148E8FEF8E
:101A20009FEF968F858F11A2369695E0EC30F907DF
:101A300089F7F12C80913605F81670F5E12CAF2C62
:101A4000B12CC501880F991FFC01E852FB4F5F01C3
:101A500020913705E216F0F4F501408151810E2CFA
:101A600002C0569547950A94E2F7642F6170F29E82
:101A7000900111242E0D311DE0EDF4E080E0A58DE4
:101A8000B68D2A173B0709F425C18F5F36968A3039
:101A9000B1F703C1F394CECF80E0F80191A1911189
:101AA00081E00A5F1F4FC016D106B9F79FB7F894BF
:101AB00040912F04509130046091310470913204B0
:101AC0009FBF40932C0550932D0560932E05709376
:101AD0002F05882341F18091F104882321F1809121
:101AE000EF049091F0040197F1F4F090EC04FF20E2
:101AF00009F4D0C06CDA60E080E070DA6AE773E085
:101B00008FE395E00E94BB0461E087E067DA68E953
:101B100073E08FE395E00E94BB0461E087E05EDA4A
:101B200000E010E003C010923C05B4C0809128048E
:101B300090912904801791074CF064E672E08FE3DE
:101B400095E00E94BB040F5F1F4FF0CFFC01EC57E4
:101B5000FC4F20812F115AC0019690932904809345
:101B60002804049709F096C064E873E080E090E0F0
:101B700013DC60E080E032DA68E973E08FE395E03F
:101B80000E94990460E081E029DA69E873E08FE35C
:101B900095E00E94BB0461E087E020DA67E973E02A
:101BA0008FE395E00E94990461E08FE017DA68E91D
:101BB00073E08FE395E00E94990461E080E10EDA22
:101BC00068E973E08FE395E00E94990461E08EE09C
:101BD00005DA68E973E08FE395E00E94990461E01B
:101BE0008DE0FCD968E973E08FE395E00E949904E9
:101BF00060E088E1D7DA68EE73E080E090E0CCDB6B
:101C00001092290410922804E2D944C064EF71E0D4
:101C100080E090E0C1DBDBD960E081E0DFD96AE9F8
:101C200073E08FE395E00E94BB0460E086E0D6D9C4
:101C30006FE973E08FE395E00E94BB0461E08FE001
:101C4000CDD968E973E08FE395E00E94990461E0E3
:101C500084E0C4D96AEA73E08FE395E00E949904B6
:101C600061E08DE0BBD968E973E08FE395E00E9405
:101C700099046DEB73E083E394E00E949904A7D983
:101C80000E94AB04109229041092280403C060E063
:101C900088E188DA0E94C40218CD40FF1CC0E0ED44
:101CA000F4E080E090E0448D411117C0E0913005F0
:101CB000F0913105E20FF31F408156E0589FF0018B
:101CC000599FF00D1124E053FB4F448F368F258F21
:101CD00010A2178EA4D9E394BBCE019636968A3013
:101CE000910509F7F8CF87E595E00C945903109218
:101CF00036041092350488EE93E0A0E0B0E08093C3
:101D0000370490933804A0933904B0933A048DE1DA
:101D100092E0909334048093330485EC90E09093A8
:101D2000400480933F0484EC90E0909342048093BD
:101D3000410480EC90E0909344048093430481EC50
:101D400090E0909346048093450482EC90E0909359
:101D500048048093470486EC90E090934A04809373
:101D6000490410924C0410924D0410924E041092AB
:101D70004F046BEE73E087E595E00E940904109232
:101D800042051092410589E392E0909340058093CB
:101D90003F0582E0809343058FEF8093440583E005
:101DA0008093450584E08093460585E08093470550
:101DB00086E08093480587E08093490510924A05A4
:101DC00010924B0510924C0510924D0510924E0545
:101DD00061E080E151DA1092D2041092D6041092A0
:101DE000D5041092D7048FE292E09093D1048093AF
:101DF000D004E0EDF4E0148E10A2178E11A23696F6
:101E000085E0EC30F807B9F783E092E09093330572
:101E10008093320580E092E09093350580933405FD
:101E200084E08093360583E08093370587E092E075
:101E300090933105809330058AE090E090933905C6
:101E40008093380584EF91E090933B0580933A05A9
:101E500010923E0510923D0510922C0510922D0512
:101E600010922E0510922F0510923C050895EF92C6
:101E70000F931F93CF93DF93E80147FD02C034E037
:101E800001C034E1042E000C550B57FF03C05195DF
:101E900041955109E32E022F242FAE0107D0CE0128
:101EA000DF91CF911F910F91EF9008958F929F92A4
:101EB000AF92BF92CF92DF92EF92FF920F931F9358
:101EC000CF93DF93CDB7DEB729970FB6F894DEBF77
:101ED0000FBECDBF6A01122FB02E2BE3201720F0CA
:101EE000FF24F394F00E02C02CE3F22E0F2D27E016
:101EF000AE014F5F5F4F50D1BC014981842F897083
:101F0000813031F0E1FC06C0E0FE06C090E205C081
:101F10009DE203C09BE201C090E05E2D507143FF43
:101F20003CC0911102C083E001C084E0811718F425
:101F3000212F281B01C020E051110BC0F601822F78
:101F400030E2882319F031938150FBCFC20ED11CAF
:101F500020E0992329F0D6019C93F60131966F0178
:101F6000C6010396E2FE0AC03EE4D6013C9341E47A
:101F700011964C93119712963C9306C03EE6F601DB
:101F8000308341E641833283FC01322F40E2332328
:101F900009F442C041933150FACF42FF44C091113D
:101FA00002C083E001C084E0811718F4212F281BB0
:101FB00001C020E051110BC0F601822F30E28823CE
:101FC00019F031938150FBCFC20ED11C20E0992330
:101FD00029F0D6019C93F60131966F01C601039654
:101FE000E2FE0BC039E4D6013C933EE411963C93EB
:101FF000119736E412963C9307C039E6F601308318
:102000003EE6318336E63283FC01322F40E2332351
:1020100019F041933150FBCFFC01E20FF11D10820A
:102020008EEF9FEFA6C021E030E0911102C020E0CA
:1020300030E0161617061CF4FB01319602C0E1E0F1
:10204000F0E02E0F3F1FBB2021F0EB2DF0E031968A
:1020500002C0E0E0F0E02E0F3F1FE12FF0E02E176E
:102060003F071CF4121B212F01C020E08E2D887128
:1020700059F4F601822F30E2882319F03193815010
:10208000FBCFC20ED11C20E0992329F0D6019C93EE
:10209000F60131966F0151110BC0F601822F90E3CA
:1020A000882319F091938150FBCFC20ED11C20E000
:1020B0000F2D060F9A81342F307144FF03C09133E6
:1020C00009F40150101624F4093018F008E001C09A
:1020D00001E0AB0177FF02C040E050E0FB01E41BF0
:1020E000F50BA1E0B0E0AC0FBD1FEA0FFB1F8EE2C5
:1020F000A82E4B01801A91080B2D10E01195019527
:1021000011094F3FBFEF5B0721F4D601AC92119646
:102110006D01641775072CF08416950614F48181FF
:1021200001C080E3415051093196D60111967D01DD
:102130004017510724F0D6018C936701E2CF641752
:10214000750739F4963320F4953319F4311101C031
:1021500081E3F6018083F701822F90E2882319F052
:1021600091938150FBCFF701E20FF11D108280E0C7
:1021700090E029960FB6F894DEBF0FBECDBFDF9179
:10218000CF911F910F91FF90EF90DF90CF90BF9074
:10219000AF909F908F900895283008F027E0332764
:1021A000DA01990F311D87FD916000966105710577
:1021B00039F432602E5F3D9330E32A95E1F70895BC
:1021C0009F3F30F080387105610509F03C5F3C5F4E
:1021D0003D93913008F08068911DDF93CF931F935A
:1021E0000F93FF92EF92192F987F9695E92F96956E
:1021F0009695E90FFF27EE59FE4F99273327EE24D6
:10220000FF24A701E70105900894079428F4360FEE
:10221000E71EF81E491F511D660F771F881F991F63
:102220000694A1F70590079428F4E70EF81E491FBD
:10223000561FC11D770F881F991F661F0694A1F7AF
:102240000590079428F4F80E491F561FC71FD11D8B
:10225000880F991F661F771F0694A1F705900794B2
:1022600020F4490F561FC71FD81F990F661F771FED
:10227000881F0694A9F784911095177041F0D695A0
:10228000C79557954795F794E7941A95C1F7E8E0F5
:10229000F1E06894159015913591659195910590AF
:1022A0007FE27395E118F10A430B560BC90BD00975
:1022B000C0F7E10CF11E431F561FC91FD01D7EF44D
:1022C000703311F48A95E6CFE894015030F0080F8E
:1022D0000AF40027021708F4202F2395022F7A33DF
:1022E00028F079E37D932A95E9F710C07D932A952C
:1022F00089F6069497956795379517951794E11881
:10230000F10A430B560BC90BD00998F023957E9127
:1023100073957A3308F070E37C932013B8F77E91BD
:1023200070617D9330F0839571E37D9370E32A951E
:10233000E1F71124EF90FF900F911F91CF91DF9162
:10234000992787FD9095089540D008F481E008957D
:10235000E89409C097FB3EF490958095709561953F
:102360007F4F8F4F9F4F9923A9F0F92F96E9BB27F5
:102370009395F695879577956795B795F111F8CF71
:10238000FAF4BB0F11F460FF1BC06F5F7F4F8F4FDC
:102390009F4F16C0882311F096E911C0772321F0D2
:1023A0009EE8872F762F05C0662371F096E8862F6A
:1023B00070E060E02AF09A95660F771F881FDAF7C1
:1023C000880F9695879597F90895990F0008550FEE
:1023D000AA0BE0E8FEEF16161706E807F907C0F0AB
:1023E00012161306E407F50798F0621B730B840BB3
:1023F000950B39F40A2661F0232B242B252B21F48D
:1024000008950A2609F4A140A6958FEF811D811D2C
:1024100008950BD078C069D028F06ED018F09523BD
:1024200009F05AC05FC01124A2C07ED0A0F3959FCE
:10243000D1F3950F50E0551F629FF001729FBB27AB
:10244000F00DB11D639FAA27F00DB11DAA1F649F57
:102450006627B00DA11D661F829F2227B00DA11D0A
:10246000621F739FB00DA11D621F839FA00D611D90
:10247000221F749F3327A00D611D231F849F600DB1
:10248000211D822F762F6A2F11249F5750408AF0EA
:10249000E1F088234AF0EE0FFF1FBB1F661F771F76
:1024A000881F91505040A9F79E3F510570F014C00D
:1024B0005EC05F3FECF3983EDCF3869577956795B9
:1024C000B795F795E7959F5FC1F7FE2B880F911D94
:1024D0009695879597F9089597F99F6780E870E03A
:1024E00060E008959FEF80EC089500240A9416168A
:1024F000170618060906089500240A9412161306F2
:10250000140605060895092E0394000C11F488237F
:1025100052F0BB0F40F4BF2B11F460FF04C06F5F9B
:102520007F4F8F4F9F4F089557FD9058440F551F71
:1025300059F05F3F71F04795880F97FB991F61F045
:102540009F3F79F087950895121613061406551FBC
:10255000F2CF4695F1DF08C0161617061806991F28
:10256000F1CF86957105610508940895E894BB271D
:1025700066277727CB0197F908955058BB27AA27DC
:102580000ED0C1CFB2DF30F0B7DF20F031F49F3F83
:1025900011F41EF4A7CF0EF4E095E7FB9DCFE92FD1
:1025A000C3DF80F3BA17620773078407950718F033
:1025B00071F49EF5DBCF0EF4E0950B2EBA2FA02D13
:1025C0000B01B90190010C01CA01A0011124FF27E0
:1025D000591B99F0593F50F4503E68F11A16F040DB
:1025E000A22F232F342F4427585FF3CF46953795DA
:1025F0002795A795F0405395C9F77EF41F16BA0B9F
:10260000620B730B840BBAF09150A1F0FF0FBB1F4C
:10261000661F771F881FC2F70EC0BA0F621F731F95
:10262000841F48F4879577956795B795F7959E3FF2
:1026300008F0B3CF9395880F08F09927EE0F979580
:102640008795089579DF88F09F5790F0B92F9927E3
:10265000B751A0F0D1F0660F771F881F991F1AF0AD
:10266000BA95C9F712C0B13081F080DFB1E00895AA
:102670007DCF672F782F8827B85F39F0B93FCCF32B
:10268000869577956795B395D9F73EF490958095A3
:10269000709561957F4F8F4F9F4F089596DE08F498
:1026A0008FEF089592DE880B990B089597FB072E04
:1026B00016F4009406D077FD08D035D007FC05D07D
:1026C0003EF4909581959F4F0895709561957F4F49
:1026D0000895A1E21A2EAA1BBB1BFD010DC0AA1F63
:1026E000BB1FEE1FFF1FA217B307E407F50720F07B
:1026F000A21BB30BE40BF50B661F771F881F991FF6
:102700001A9469F760957095809590959B01AC013E
:10271000BD01CF010895EE0FFF1F881F8BBF0790EB
:10272000F691E02D1994AA1BBB1B51E107C0AA1F0B
:10273000BB1FA617B70710F0A61BB70B881F991F62
:102740005A95A9F780959095BC01CD0108950F93F6
:102750001F93CF93DF938230910510F482E090E0D5
:10276000E0915F05F091600520E030E0A0E0B0E08E
:10277000309719F14081518102811381481759071F
:10278000C8F08417950769F4109731F012960C93EE
:10279000129713961C9327C000935F051093600552
:1027A00022C02115310519F04217530718F49A0178
:1027B000BD01EF01DF01F801DBCF21153105F9F093
:1027C000281B390B2430310580F48A819B816115E7
:1027D000710521F0FB019383828304C0909360050F
:1027E00080935F05FE01329644C0FE01E20FF31FA5
:1027F0008193919322503109398328833AC02091E3
:102800005D0530915E05232B41F420911502309136
:10281000160230935E0520935D05209113023091DE
:1028200014022115310541F42DB73EB7409117022E
:1028300050911802241B350BE0915D05F0915E0567
:10284000E217F307A0F42E1B3F0B2817390778F087
:10285000AC014E5F5F4F2417350748F04E0F5F1FE6
:1028600050935E0540935D058193919302C0E0E033
:10287000F0E0CF01DF91CF911F910F910895CF9399
:10288000DF93009709F481C0FC0132971382128212
:10289000A0915F05B0916005109781F4208131818E
:1028A000820F931F20915D0530915E05281739072F
:1028B00051F5F0935E05E0935D0567C0ED0120E002
:1028C00030E0CE17DF0740F44A815B819E0141155D
:1028D0005105F1F0EA01F5CFD383C28340815181E4
:1028E000840F951FC817D90759F488819981840FDF
:1028F000951F0296918380838A819B819383828333
:102900002115310529F4F0936005E0935F053DC082
:10291000E901FB83EA8349915991C40FD51FEC1754
:10292000FD0761F480819181840F951F0296E90172
:1029300099838883828193819B838A83E0E0F0E09E
:1029400012968D919C911397009719F0FD01DC016F
:10295000F7CF8D919C9111979D012E5F3F4F820F74
:10296000931F20915D0530915E052817390769F4A2
:10297000309729F41092600510925F0502C013820F
:102980001282B0935E05A0935D05DF91CF9108950B
:102990006F927F928F929F92AF92BF92CF92DF926F
:1029A000EF92FF920F931F93CF93DF93009781F4E1
:1029B000CB01DF91CF911F910F91FF90EF90DF90AE
:1029C000CF90BF90AF909F908F907F906F90BFCE31
:1029D000FC01E60FF71F9C0122503109E217F307B3
:1029E00008F4A5C0EC01D9010D911C9111970617AF
:1029F0001707A8F00530110508F497C0C80104971F
:102A00008617970708F491C002501109061B170B8F
:102A1000019311936D937C93CF0131DF86C05B01ED
:102A2000A01AB10A4C01800E911EA0915F05B091D1
:102A30006005612C712CE12CF12C109709F446C033
:102A40008D919C911197A815B905B1F56C0142E0E3
:102A5000C40ED11CCA14DB0478F14C018A189B08FF
:102A6000640142E0C40ED11C1296BC9012971396DA
:102A7000AC91B5E0CB16D10440F0B282A383918231
:102A80008082D9016D937C9309C00E5F1F4F800F28
:102A9000911FF90191838083EB2DFA2FE114F1044A
:102AA00031F0D7011396FC93EE9312973EC0F0934A
:102AB0006005E0935F0539C06816790608F43C01AB
:102AC0007D0112960D90BC91A02DB7CF80915D0530
:102AD00090915E0588169906E1F466167706C8F4AB
:102AE0008091130290911402009741F48DB79EB724
:102AF0004091170250911802841B950BE817F907B3
:102B0000B0F4F0935E05E0935D05F9017183608395
:102B10000CC0CB011CDE7C01009749F0A801BE016E
:102B20001BD0CE01ACDEC70104C0CE0102C080E0E4
:102B300090E0DF91CF911F910F91FF90EF90DF9088
:102B4000CF90BF90AF909F908F907F906F9008959F
:102B500081E090E0F89410C0FB01DC0102C001901C
:102B60000D9241505040D8F70895FB01DC010190CF
:102B70000D920020E1F7089511E0C2E9D1E000E0F4
:102B800005C0802FFE01C7DD2196011DC339D10785
:0A2B900080E00807B1F7F894FFCFCA
:102B9A000C0D0E08090A0B31323334353637383901
:102BAA002A3023000061058000000000005702C59A
:102BBA0001EF01A3022002FE011202000000001B25
:102BCA000300031903000000009305C501FD02FC80
:102BDA000250726573656E6365206465746563741B
:102BEA0065000D0A002A454E54524552204C452094
:102BFA00434F44452A00504F5552204152524554A2
:102C0A00455221210050726573656E6365206465C3
:102C1A0063746574652061203A200020636D00505A
:102C2A00726573656E6365206465637465746500B7
:102C3A0053494D3930304420696E697469616C6951
:102C4A00736572006E616E00696E66006F7666006B
:102C5A00426F6E6A6F7572204D7200537973746594
:102C6A006D20696E206F7065726174696F6E004FB6
:102C7A007576657274757265206465206C6120666C
:102C8A00656E6574726520666F7263656500466C71
:102C9A00616D6D65206465637465746500466C6179
:102CAA006D6D652064657465637465652E2E2E2EC0
:102CBA002121210047617A20646563746574650087
:102CCA0047617A20646574656374C3A92E2E2E2E1B
:102CDA00212121004F7576657274757265206465CD
:102CEA00206C6120706F72746520666F726365650F
:102CFA0000416C657274652070726573656E6365F8
:102D0A002064657465637465650050415353574F79
:102D1A0052443A0032333435004163636573732099
:102D2A005065726D697300202000434F4445004985
:102D3A004E434F525245435445004553534159451A
:102D4A005220454E434F52452021212100434F44F2
:102D5A004520494E434F52524543544520564F55FC
:102D6A0053204E274156455A20504153204C41206A
:102D7A005045524D495353494F4E002B3233373643
:102D8A00383233303935383000456E766F69206411
:102D9A0075206D6573736167652E2E2E0041542B65
:102DAA00434D47533D310041542B434D47533D2238
:022DBA00000017
:00000001FF
